:020000040800F2
:10000000C00B00209901000853220008211D0008A0
:10001000B5210008D50B0008DF270008000000000C
:100020000000000000000000000000001324000891
:10003000390E0008000000001124000815240008F3
:10004000B3010008B3010008B3010008B3010008C0
:10005000B3010008B3010008B3010008B3010008B0
:10006000B3010008B3010008B3010008B3010008A0
:10007000B3010008B3010008B3010008B301000890
:10008000B3010008B3010008B3010008B301000880
:10009000B3010008B3010008B3010008B301000870
:1000A000B3010008B3010008B3010008B301000860
:1000B000B3010008B3010008B3010008B301000850
:1000C000B3010008B3010008B3010008B301000840
:1000D000B3010008B3010008B3010008B301000830
:1000E000B3010008B3010008B301000800F002F8F2
:1000F00000F042F80AA090E8000C82448344AAF180
:100100000107DA4501D100F037F8AFF2090EBAE87D
:100110000F0013F0010F18BFFB1A43F0010318473B
:10012000A82D0000C82D0000103A24BF78C878C15F
:10013000FAD8520724BF30C830C144BF04680C60ED
:10014000704700000023002400250026103A28BF35
:1001500078C1FBD8520728BF30C148BF0B60704739
:10016000752900F0A580732900F0C3820020704734
:100170001FB51FBD10B510BD00F0F1FA1146FFF715
:10018000F7FF02F044FB00F00FFB03B4FFF7F2FFB0
:1001900003BC00F017FB00000948804709480047EE
:1001A000FEE7FEE7FEE7FEE7FEE7FEE7FEE7FEE727
:1001B000FEE7FEE704480549054A064B7047000084
:1001C00077240008ED000008C0050020C00B0020C7
:1001D000C0070020C00700200FB47CB50C0009AA9E
:1001E000009001D02044401E084B7B44694601909A
:1001F000089800F04CFA05461CB10020694600F052
:1002000059FA28467CBC5DF814FB0000D1040000BC
:1002100070B5044685690068C10601D5302600E046
:100220002026C00707D070BDD4E901213046904791
:10023000206A401C20626D1EF6D570BD70B5044664
:1002400085690078C00707D170BDD4E9012120205D
:100250009047206A401C20626D1EF6D570BD70B5B7
:100260000C460546012A05D02878800600D5EA69A3
:10027000002302E0012305E05B1C934202D2E05C14
:100280000028F9D1A869E618C01AA861286A18449C
:1002900028622846FFF7BCFF04E0D5E9012114F8E5
:1002A000010B9047B442F8D32846FFF7C7FF70BD53
:1002B0002DE9F0410646002410687529314616A53F
:1002C00010D0AFF30080002802DA404213A507E007
:1002D00031688A0701D512A502E0490704D511A5A6
:1002E000012401E0AFF3008000210A2206F1240777
:1002F00009E0B0FBF2FCB0FBF2F302FB1C00303073
:1003000078541846491C0028F3D123462A46304623
:10031000BDE8F04100F05DB9000000002D000000D4
:100320002B000000200000002DE9F05F8946044604
:100330004FF0000ADFF874B1FB44C0F820A020465B
:10034000E1688847002874D0252806D0D4E9012127
:100350009047206A401C2062F1E700265F46204655
:10036000E16888472028054607DB312D05D278193A
:1003700010F8200C08B10643F1E7B00701D526F0CC
:100380000406C4F81CA00027C4F818A02A2D09D020
:10039000284602F035FA38B304EB8708303DC8F838
:1003A000185019E059F8041B204604EB87029161AC
:1003B000E1688847012F054618D1E069002820DA56
:1003C00026F020061DE0D8F8180000EB800005EBB1
:1003D00040003038C8F818002046E16888470546D4
:1003E00002F00EFA0028EED1012F0AD02E2D08D1EE
:1003F0002046E16888477F1C0546022F46F020060C
:10040000C4DBA069002803DA404246F00106A0617F
:10041000F00701D026F010066C2D0BD0682D09D006
:100420004C2D39D06A2D35D0742D35D07A2D33D05E
:1004300016E038E0E1682F4620468847B842054676
:1004400009D16C2F26D04FF48060E1680643204626
:100450008847054604E06C2F1AD04FF4807006439D
:100460000DB3A5F14100192802D8203546F40066E5
:100470004A462946204626604E46FFF771FE80B167
:1004800001280BD0F61D26F0070000F1080956E7F9
:100490004020E4E78020D8E70020D6E706F10409F1
:1004A0004DE7284652E7206ABDE8F09F782B000010
:1004B000032A40F2308010F0030C00F0158011F890
:1004C000013BBCF1020F624498BF11F801CB00F868
:1004D000013B38BF11F8013BA2F1040298BF00F8BC
:1004E00001CB38BF00F8013B11F0030300F0058198
:1004F000083AC0F0088051F8043B083A51F804CBA0
:10050000A0E80810F5E7121D5CBF51F8043B40F865
:10051000043BAFF30080D20724BF11F8013B11F870
:1005200001CB48BF11F8012B24BF00F8013B00F8B4
:1005300001CB48BF00F8012B70474FF0000204299F
:10054000C0F0128010F0030C00F01B80CCF1040C02
:10055000BCF1020F18BF00F8012BA8BF20F8022B36
:10056000A1EB0C0100F00DB85FEAC17C24BF00F8DC
:10057000012B00F8012B48BF00F8012B70474FF00A
:10058000000200B5134694469646203922BFA0E8E3
:100590000C50A0E80C50B1F12001BFF4F7AF0907EF
:1005A00028BFA0E80C5048BF0CC05DF804EB8900E0
:1005B00028BF40F8042B08BF704748BF20F8022B23
:1005C00011F0804F18BF00F8012B7047704770473B
:1005D00070472DE9F0470D4699469246044600F1D2
:1005E00024080168880604D5E06921F01001216023
:1005F00000E00120A84201DD471B00E00027A169BF
:100600007A1902EB0900081AA0612078C00602D40A
:100610002046FFF7FDFD002608E0D4E901211AF885
:1006200006009047206A401C761C20624E45F4DB91
:100630002078C0060AD52046FFF7EAFD06E0D4E997
:10064000012130209047206A401C2062381EA7F10B
:100650000107F4DC07E0D4E9012118F80500904710
:10066000206A401C2062281EA5F10105F3DC20460B
:10067000FFF7E4FD2078000602D50220BDE8F087F0
:100680000120FBE701694A1C02610878704700B548
:100690008FB0CDE901310021059105497944CDE9BB
:1006A000031011466846FFF73FFE0FB000BD000083
:1006B000E5FFFFFF0A6802F8010B0A607047D1E905
:1006C00000239A4202D2531C0B601070704710B581
:1006D000436913B1AFF3008001E0FFF7C0FD0120D3
:1006E00010BD127800F124010A7000224A70012224
:1006F000EDE711684FF0FF32E9E710B5203AC0F09E
:100700000B80B1E81850203AA0E81850B1E8185012
:10071000A0E81850BFF4F5AF5FEA027C24BFB1E84F
:100720001850A0E8185044BF18C918C0BDE81040C0
:100730005FEA827C24BF51F8043B40F8043B08BFC9
:100740007047D20728BF31F8023B48BF11F8012B90
:1007500028BF20F8023B48BF00F8012B70477546C0
:1007600000F02CF8AE4605006946534620F007001D
:10077000854618B020B5FFF71DFDBDE820404FF0BD
:1007800000064FF000074FF000084FF0000B21F07B
:100790000701AC46ACE8C009ACE8C009ACE8C00948
:1007A000ACE8C0098D46704710B50446AFF3008031
:1007B0002046BDE81040FFF7E8BC00000048704745
:1007C0006005002001491820ABBEFEE726000200AC
:1007D00070470000F8B514460D002DD0002C2BD02A
:1007E00016494FF07C5610F1FF4F05D202F074F914
:1007F000314602F01DF804E002F06EF9314602F0D5
:1008000037FA02F039F90A21002809DA4042B0FB30
:10081000F1F2B0FBF1F301FB1202009208A207E033
:10082000B0FBF1F2B0FBF1F301FB1202009207A260
:1008300021462846FFF7D0FCF8BD0000000020410B
:100840002D256C752E2530316C750000256C752EAC
:100850002530316C7500000010B500F005FC1D4915
:1008600000220A704A608A60CA604A708A700A610F
:100870000122CA7048618861C861086248621648EE
:1008800001F0FEF808B100F0D8FA01F0ACFB00F07E
:10089000ABF900F0E5F901F005FD104801F09AFC14
:1008A0000E481C3001F096FC01F0D4FC00210CA293
:1008B000084601F015FD0FA20221002001F010FDF5
:1008C0000FA20421002001F00BFDBDE8104001F053
:1008D00039BD000000000020980000202801002001
:1008E0004D696E6920456E76204D6F6E69746F722A
:1008F0000000000053656E736F7220496E697400CA
:100900005541525431203131353230300000000031
:100910000B68C31A934202D308600120704700207D
:100920007047000010B5294C8EB0102206A96068EF
:10093000FFF750FF10220AA9A068FFF74BFF002124
:1009400023A2084601F0CCFC06AB26A2182168467B
:10095000FFF742FC6A460121002001F0C1FC0AAB0E
:1009600023A218216846FFF737FC6A4602210020BF
:1009700001F0B6FC21A218216846E368FFF72CFCC1
:100980006A460321002001F0ABFC607808B11EA389
:1009900000E01EA31EA218216846FFF71DFC6A4650
:1009A0000421002001F09CFCA07808B11BA300E00A
:1009B0001BA31DA218216846FFF70EFC6A460521FD
:1009C000002001F08DFC0EB010BD000000000020E2
:1009D0004D696E6920456E76204D6F6E69746F7239
:1009E0000000000054656D703A202573204300001C
:1009F00048756D203A2025732025250054696D65C2
:100A00003A20256C752073004F4E00004F4646007B
:100A1000416C61726D3A2025730000004F4B00005D
:100A200057414954000000004448543A20257300BF
:100A300010B5002186B013A2084601F051FC15A2A2
:100A40000121002001F04CFC16A20221002001F03F
:100A500047FC174C17A2182168462369FFF7BCFB17
:100A60006A460321002001F03BFC16A218216846CB
:100A7000E368FFF7B1FB6A460421002001F030FC77
:100A800006B010BD53544D333246313033433854E1
:100A9000360000005541525431203131353230306A
:100AA0000000000049324331204F4C454400000013
:100AB00000000020444854204572723A20256C758D
:100AC0000000000052756E3A20256C7520730000FE
:100AD0002DE9FC4100F0C8FA05464FF47A76B0FBE8
:100AE000F6F0384C0A2204F11401E0602846FFF7C2
:100AF0000FFF012750B1284600F092F800F06CF883
:100B000020B1207827EA00002070E7702D49B04618
:100B100032461C312846FFF7FBFE002648B101A9EA
:100B2000684600F0A9F850B1A6702069401C206109
:100B3000E7702548616881420EDD01210DE0A77054
:100B40002248009901F055FB6060204801991C3053
:100B500001F04FFBA060EBE700216170284611B166
:100B600001F04CFA07E0174942462431FFF7D0FE66
:100B700008B101F04BFA1349424620312846FFF7ED
:100B8000C7FE30B160780090211D11480EC901F0F8
:100B90004DFDE07840B90B494FF4FA721831284600
:100BA000FFF7B6FE002808D001F054FB207830B1E2
:100BB000FFF73EFF01F0C6FBE670BDE8FC81FFF7E2
:100BC000B1FEF7E7000000200000F04128010020FE
:100BD000E0000020FEE7000002490022C878CA7049
:100BE000704700002C00002010B500F00DF8054CF7
:100BF00020706070A0700020E07000F035FA606036
:100C000010BD00002C00002010B50121034800F0A9
:100C100019FA08B1002010BD012010BD00080140E4
:100C200010B50446FFF7F0FF0C490A78904201D056
:100C300008704C604A68A21A142A06D34A78904277
:100C400003D04870012208B18A7010BD887800284E
:100C5000FBD000208870CA7010BD00002C0000205E
:100C600010B500F0B5F80122BDE8104011030148AD
:100C700000F0F5B9000C01402DE9F04786B04FF0C7
:100C8000000488465FEA0009009401942CD0B8F172
:100C9000000F29D000F09CF84A4F4FF480560022F4
:100CA0003146384600F0DBF9122000F0C9F8012285
:100CB0003146384600F0D3F9434D1E2029684C6276
:100CC00029684A6A92B28242FBD30120CDE904042A
:100CD000CDE9026402A9384600F0C4F8782100206A
:100CE00000F088F8F0B903E0032006B0BDE8F08713
:100CF0007821012000F07EF8A0B97821002000F0D2
:100D000079F878B90024EA4600267821012000F01D
:100D100071F838B92868406A782187B2002000F05D
:100D200069F808B10120E0E72868406A1AF8041061
:100D3000C01B4906090E82B20AF80410322A03D9F0
:100D400041F001010AF80410761CF6B2082EDCD33B
:100D5000641CE4B2052CD7D39DF800109DF8010067
:100D60009DF802209DF8033001441A4411449DF877
:100D70000420C9B2914201D00220B6E701F098FEEA
:100D8000124D294601F0B6FD04469DF8000001F021
:100D90008FFE214601F04CFDC8F800009DF80300CD
:100DA00001F086FE294601F0A5FD04469DF80200EB
:100DB00001F07EFE214601F03BFDC9F80000002055
:100DC00093E70000000C0140980000200000204143
:100DD0001FB54FF480500090112001900120029027
:100DE000022003906946024800F03CF81FBD000055
:100DF000000C01402DE9F0470D4C06460F462068D7
:100E0000406A4FF4805885B2DFF8289008E02068E7
:100E1000406A401B80B2B84202D90120BDE8F08789
:100E20004146484600F00EF9B042F0D10020F5E707
:100E300098000020000C0140704772B6FEE70000E9
:100E400070B5044600F010F90546601C02D0044855
:100E50000078044400F008F9401BA042FAD370BDAA
:100E6000340000202DE9F84FDFF8B8910024A9F1F3
:100E7000040B23460F2709F1040AABF1040EC9E065
:100E80000125A5402A40AA427DD1674ED1F804C071
:100E9000ACEB0608B44532D014DCBCF1030F3AD0F9
:100EA00009DCBCF1000F2AD0BCF1010F1CD0BCF151
:100EB000020F31D11DE0BCF1110F17D0BCF1120FA0
:100EC0002AD119E0B8F5881F19D006DCB8F5803FA3
:100ED00015D0B8F5801F1FD111E0B8F5001F0ED056
:100EE000B8F5041F18D10AE0CB6815E0CB681B1DCC
:100EF00012E0CB6808330FE0CB680C330CE08B6852
:100F00002BB1012B4FF0080303D0456104E004230B
:100F100002E0056100E00023FF2A01D8064601E057
:100F200000F104064FEA840501D9A5F12005D6F8A1
:100F3000008007FA05FC28EA0C0803FA05F548EAE0
:100F40000508C6F800804D68ED0062D5374DAE69E2
:100F500046F00106AE61AD6924F0030605F0010517
:100F60000095334D06EB050CDCF80850A607360F4C
:100F700007FA06F825EA0805DFF8B880404503D1EE
:100F80004FF0000817E044E0DFF8AC80404502D1A4
:100F90004FF001080FE0DFF8A480404502D14FF088
:100FA000020808E0DFF89880404502D14FF00308BE
:100FB00001E04FF0040808FA06F848EA0508CCF802
:100FC00008804D68D9F80060ED024D4601D5164302
:100FD00000E096432E604D68DAF80060AD02554699
:100FE00001D5164300E096432E604D68DBF80060A3
:100FF000AD035D4601D5164300E096432E604D6873
:10100000DEF80060ED03754601D5164300E0964317
:101010002E60641C0D682A46E5407FF431AFBDE8C0
:10102000F88F000008040140000011100010024079
:101030000000014000080140000C01400010014088
:10104000001401408068084000D001207047C26849
:1010500021EA02030A4043EA0241016170470AB1F2
:10106000016170470904FBE7014880687047000090
:101070003400002070B5040025D094F83D00002510
:1010800020B984F83C50204600F04EF9242084F822
:101090003D002068016821F00101016020680168BD
:1010A00041F4004101602068016821F400410160C1
:1010B00000F088FA4D4A6168914201D84C4900E03D
:1010C0004C49884201D2012070BD4B492368B0FBD6
:1010D000F1F15E6826F03F060E435E60636893425E
:1010E00006D94FF4967359434FF47A73B1FBF3F179
:1010F0002368491C1E6A26F03F0631431962616865
:10110000914210D84900401EB0FBF1F2521CC2F3CC
:101110000B02042A01D2042022E0B0FBF1F0401CB3
:10112000C0F30B001CE0A268F2B301EBC10303EBB8
:101130000116431EB3FBF6F35B1C43F480431B050F
:1011400049D092B301EBC10202EB0111401EB0FB8A
:10115000F1F0401CC0F30B0040F4804040F400402C
:101160002168CA694CF6FF739A431043C861D4E9F9
:10117000071001432068026822F0C0021143016099
:10118000D4E9030101432068826848F2FF339A439F
:1011900011438160D4E9050108432168CA6822F03F
:1011A000FF021043C86001E00EE016E0206801680D
:1011B00041F0010101602564202084F83D00256391
:1011C00084F83E50002070BD01EB4106431EB3FB86
:1011D000F6F35B1CB3E70120C2E701EB4101401EBF
:1011E000B0FBF1F0401CC0F30B00B7E7A086010094
:1011F00080841E0000093D0040420F002DE9F84F99
:101200001F4690468A460446DDF82890FFF72CFFDB
:10121000054694F83D0020287FD11923012240493A
:101220002046009500F00EFE002876D194F83C0090
:10123000012872D0012084F83C0020680168C907A9
:1012400003D1016841F0010101602068016821F4C7
:1012500000610160212084F83D00102084F83E00E8
:1012600000262664C4F824806785608D20852D487B
:10127000E0622B464A465146204600F069FD90B98F
:10128000206841698069009036E02A464946204638
:1012900000F07EFE50B1206C042804D12068016863
:1012A00041F4007101600120BDE8F88F606A216897
:1012B00000780861606A401C6062618D491E61852A
:1012C000218D491E89B2218522685369DB435B0762
:1012D0000BD451B100781061606A401C6062608D6F
:1012E000401E6085208D401E20852A4649462046A6
:1012F00000F07CFD0028CED1208D0028C5D154F807
:101300003D0B016841F400710160202004F81E09C2
:10131000E67766770020C7E7FFE70220C4E7000012
:10132000020010000000FFFF10B586B00021009100
:1013300001910291039100680F4988421AD10F4C24
:10134000A06940F00800A061A069694600F00800AB
:101350000490C020009012200190032003900848C0
:10136000FFF780FDE06940F40010E061E06900F4FF
:101370000010049006B010BD005400400010024060
:10138000000C014002488168027811448160704776
:1013900034000020074810B5016841F010010160D9
:1013A000032000F067F80F2000F006F800F024F8A2
:1013B000002010BD0020024070B50D4D04464FF4D2
:1013C0007A712878B1FBF0F00A490968B1FBF0F0B6
:1013D00000F0CEFA48B9102C07D200222146501E48
:1013E00000F028F800206C6070BD012070BD000086
:1013F00034000020400000200C4808B5816941F00D
:1014000001018161816901F001010091C16941F02F
:101410008051C161C06900F080500090044841686B
:1014200021F0E06141F00071416008BD0010024010
:1014300000000140F0B40E4B1B680C46C3F30223BE
:10144000C3F10705042D00D90425191D072901D270
:10145000002300E0DB1E012606FA05F1491E2140AB
:1014600099409E40761E16403143F0BC01F0B8B959
:101470000CED00E0064900F0070208684FF6FF0394
:10148000184040EA0220034A1043086070470000F9
:101490000CED00E00000FA052DE9F0470F460500CD
:1014A00061D0434E306800F00700B84209D230687E
:1014B00020F0070038433060306800F00700B84281
:1014C00051D128683B4C810712D5400703D560688D
:1014D00040F4E06060602878000703D5606840F45D
:1014E000605060606068A96820F0F00008436060A8
:1014F0002878C00728D06868012810D02168022801
:1015000010D0890700292EDA616821F00301014318
:101510006160FFF7A9FD804641F288390DE021683E
:101520008903EFE78901EDE7FFF79EFDA0EB0801D6
:10153000494502D90320BDE8F0876068696800F07A
:101540000C00B0EB810FEFD1306800F00700B8421B
:101550000BD9306820F0070038433060306800F065
:101560000700B84201D00120E5E72878400705D5FB
:101570006068E96820F4E06008436060287800074C
:1015800006D56068296920F4605040EAC1006060B7
:1015900000F038F86168084AC1F30311515CC84093
:1015A0000649086006480068FFF706FF0020C2E70A
:1015B00000200240001002409C2E00084000002045
:1015C000380000200448054900684968044AC1F30E
:1015D0000221515CC84070474000002000100240CA
:1015E000AC2E00080448054900684968044AC1F364
:1015F000C221515CC84070474000002000100240EA
:10160000AC2E00080E4A51680E4801F00C03042B62
:1016100011D0082B0FD10C48C1F38343C903C05C20
:101620000AD55168084AC1F34041921E515C054AEF
:101630005043B0FBF1F07047044948437047000045
:101640000010024000127A008C2E000800093D00B4
:101650002DE9F84F040070D02078C04DC00749D064
:101660006868C0F38100012807D06868C0F3810072
:10167000022809D16868C00306D52868800339D5D7
:1016800060680028E7D035E06068B0F5803F0BD097
:1016900010B1B0F5A02F11D0286820F48030286058
:1016A000286820F4802002E0286840F48030286018
:1016B000606890B1FFF7D8FC06460AE0286840F45D
:1016C00080202860F0E700BFFFF7CEFC801B642875
:1016D00073D828688003F7D50CE0FFF7C5FC0646F1
:1016E00005E000BFFFF7C0FC801B6428F0D8286825
:1016F0008003F7D420789A4E80074FF001094FF00D
:10170000000839D5686810F00C0F07D06868C0F37E
:101710008100022809D16868C00306D428688007C0
:1017200014D52069012808D110E02069B0B1C6F8AD
:101730000090FFF799FC074605E00AE1FFF794FCEB
:10174000C01B0228C4D828688007F7D528686169BB
:1017500020F0F80040EAC10028600DE0C6F80080E3
:10176000FFF782FC074604E0FFF77EFCC01B02285F
:1017700023D828688007F7D4207800072CD579482B
:10178000A169D9B1C0F80090FFF76EFC074604E0EC
:10179000FFF76AFCC01B02280FD8686A8007F7D5DC
:1017A00071484FF4FA510068B0FBF1F0009000BFAF
:1017B0000098411E0091FAD20EE080E0C0F800804F
:1017C000FFF752FC074604E0FFF74EFCC01B02285F
:1017D00075D8686A8007F7D42078400760D5E86933
:1017E0000027C00008D4E86940F08050E861E8694B
:1017F000012700F0805000905C480168C90513D4AF
:101800000168834641F480710160FFF72DFC824638
:1018100006E000BFFFF728FCA0EB0A0064284ED8C2
:10182000DBF80000C005F5D5E06801280AD008B152
:10183000052813D0286A20F001002862286A20F0C9
:10184000040002E0286A40F001002862E06841F2EA
:10185000883B98B1FFF708FC82460BE0286A40F00D
:1018600004002862EEE700BFFFF7FEFBA0EB0A01D1
:1018700059455AD8286A8007F6D50CE0FFF7F4FBE3
:10188000824605E0FFF7F0FBA0EB0A0159454CD872
:10189000286A8007F6D41FB1E86920F08050E8611B
:1018A000E06988B36968C1F38101022944D0022844
:1018B000C6F8608004D0FFF7D7FB044638E034E078
:1018C000FFF7D2FB074604E0FFF7CEFBC01B022860
:1018D0002BD828688001F7D4206AB0F5803F05D165
:1018E0006868A16820F4003008436860D4E9080102
:1018F0000843696821F4741108436860C6F8609071
:10190000FFF7B2FB044606E025E000BFFFF7ACFBA3
:10191000001B022809D828688001F7D51BE000BF0A
:10192000FFF7A2FB001B022802D90320BDE8F88FB5
:1019300028688001F4D40EE00128F7D06868226A94
:1019400000F48031914204D1616A00F47010884241
:1019500001D00120EAE70020E8E700000010024083
:1019600000004242800442424000002000700040DB
:1019700010B5401EB0F1807F01D3012010BD4FF0A3
:10198000E02460610F21601700F02AFF0020A061B1
:1019900007202061002010BD70B590F83C20012A7E
:1019A00026D0012480F83C40022280F83D200368C4
:1019B0005A689D6822F070060A6832435A600D4BDF
:1019C00002689A4208D0B2F1804F05D00A4B9A4281
:1019D00002D00A4B9A4204D1496825F0800319438A
:1019E000916080F83D40002180F83C10084670BDB1
:1019F000022070BD002C014000040040000800409F
:101A000010B5040003D094F83D0010B107E00120A8
:101A100010BD002084F83C00204600F01FF8022092
:101A200084F83D00211D206800F026FD012084F887
:101A3000460084F83E0084F83F0084F8400084F8B3
:101A4000410084F8420084F8430084F8440084F89C
:101A5000450084F83D00002010BD000008B5006876
:101A6000B0F1804F08D10548C16941F00101C16161
:101A7000C06900F00100009008BD000000100240A5
:101A800090F83D10012901D001207047022180F813
:101A90003D1000680B49884208D0B0F1804F05D056
:101AA0000949884202D00949884204D1816801F07D
:101AB0000701062903D0016841F0010101600020FF
:101AC00070470000002C0140000400400008004066
:101AD00070B5044690F83C000025012817D0012677
:101AE00084F83C60022084F83D002068826822F07F
:101AF000770222F47F4282600868502838D00DDCDB
:101B000020284FD005DC90B3102811D14AE00220E4
:101B100070BD302846D040280AD13BE060282FD045
:101B200070280DD0B0F5805F03D0B0F5005F12D003
:101B3000012584F83D60002084F83C00284670BDF3
:101B4000CB68D1E90121206800F0D2FC20688168CF
:101B500041F0770109E0CB68D1E90121206800F06C
:101B6000C7FC2068816841F480418160E1E719E0A9
:101B7000CA684968206800F0CDFC5021206806E062
:101B8000CA684968206800F0D6FC6021206800F02F
:101B9000B9FCCEE7CA684968206800F0BBFC402168
:101BA0002068F4E7226801461046F0E770B50400AB
:101BB00004D094F84100002510B106E0012070BD6A
:101BC00084F84050204600F023F8242084F8410097
:101BD0002068C16821F40051C160204600F06AFD10
:101BE0002068016921F4904101612068416921F078
:101BF0002A0141612068C16841F40051C1606564F7
:101C0000202084F8410084F842006563002070BD04
:101C100030B585B0002400940194029403940068C8
:101C20001449884224D11448816941F4804181617A
:101C3000816901F480410491816941F0040181616D
:101C400080690E4D00F0040004904FF40070009085
:101C5000022001900320039069462846FFF702F90D
:101C60002815CDE90004694628460294FFF7FAF8E2
:101C700005B030BD003801400010024000080140AE
:101C80002DE9F843044690F84100984616460D4663
:101C9000202802D00220BDE8F88385B17EB1002063
:101CA0006064212084F84100FFF7DEF9A6848146B4
:101CB000E684A0682027B0F5805F02D003E0012011
:101CC000E9E7206910B12E4600250EE000260CE061
:101CD0008021204600F04AFDA8B9C6B116F8010BD4
:101CE00021684860E08C401EE084E08C4B464FF059
:101CF0000002CDF800800028EAD14FF040012046D4
:101D000000F034FD40B184F841700320C3E735F89A
:101D1000020BC0F30800E3E784F841700020BAE743
:101D2000FEE701684A69D24352050FD46FF480621E
:101D30004A61002140F8301F2022427381730269FA
:101D400042F00402026101730120704700207047D5
:101D5000F8B50446C06A1E460D461746082807D047
:101D6000012805D010F5803F02D0206B122804D145
:101D70002068016841F480710160134600224FF031
:101D800001112046009600F05DF840B1206800681F
:101D9000C00502D54FF4007020640320F8BD20690F
:101DA000B0F5804F0ED00620216800EAD51040F033
:101DB000F000086133463A460B49204600F08AF8A5
:101DC00078B902E005F0FE0000E0E8B221680861A1
:101DD000054933463A46891F204600F07BF8002823
:101DE000DCD00120F8BD00000800010070B51646E7
:101DF0000D4604461EE02046FFF793FF08B1012080
:101E000070BD681C16D0FFF72FF9801BA84200D8C0
:101E100085B920684069C04340070BD5002044F8CD
:101E2000300F20216173A073216941F020012161ED
:101E30002073E4E720684069C0434007DBD40020FA
:101E400070BD00002DE9F047984617460D46044640
:101E5000C1F30746DDF820902AE000BFB8F1FF3F4C
:101E600026D0FFF701F9A0EB0901414502D8B8F1EE
:101E7000000F1DD12068012E16D0806925EA0000D0
:101E80000004000C12D00020B84211D1002044F808
:101E9000300F20216173A073216941F0200121617D
:101EA00020730120BDE8F0874069E7E70120EBE7F8
:101EB0002068012E0AD0806925EA00000004000C89
:101EC00006D00020B842C9D00020EBE74069F3E714
:101ED0000120F7E72DE9F047984616460D460446DF
:101EE0004FF000094FF0200AC1F3074723E02068B4
:101EF0004069C043400515D42068016841F4007171
:101F0000016021686FF480604861C4F8309084F803
:101F10003DA084F83E90216C41F00401216484F8D6
:101F20003C9021E0701C06D0FFF79EF8A0EB080063
:101F3000B04203D816B1012F1FD021E02068012F35
:101F400015D0806925EA00000004000C18D000BFFD
:101F500044F8309F84F80DA084F80E90216941F078
:101F60002001216184F80C900120BDE8F0874069D0
:101F700025EA00000004000CEAD12068406901E075
:101F80002068806925EA00000004000CAFD1ECE76E
:101F900070B516460D4604461EE02046FFF7C1FE0A
:101FA00008B1012070BD681C16D0FFF75DF8801BDA
:101FB000A84200D885B920684069C04300060BD507
:101FC000002044F8300F20216173A073216941F093
:101FD000200121612073E4E720684069C0430006C6
:101FE000DBD4002070BD00F001B8000001225103D5
:101FF0000148FFF734B800000010014000224FF400
:1020000000510148FFF72BB8001001404FF4005178
:102010000148FFF71CB80000001001402DE9F04313
:1020200085B00025284800950195029503958169A2
:1020300041F010018161816901F010010491816911
:1020400041F020018161816901F0200104918169E1
:1020500041F004018161816901F004010491816909
:1020600041F0080181618069012200F00800DFF879
:102070005C805403049021464046FEF7F0FF0122A5
:10208000DFF84C90170339464846FEF7E8FF009406
:1020900001AA0124022682E8700069464046FEF744
:1020A000E1FECDE9004569460A480294FEF7DAFEF2
:1020B00001AA1120009782E8510069464846FEF7C0
:1020C000D1FE05B0BDE8F0830010024000100140D1
:1020D000000C0140000801400D4810B50B4901609B
:1020E0000C49416000214FF480428160C0E9031235
:1020F00041618161C1610162FEF7BCFF002803D02C
:10210000BDE81040FEF799BE10BD0000005400402D
:1021100044000020A086010010B586B000241648B7
:10212000009401940294039404944FF08041059428
:10213000C0E900144FF6FF71C0E9024104618461F7
:10214000FFF75EFC08B1FEF778FE4FF48050009078
:1021500069460948FFF7BCFC08B1FEF76EFE04941F
:1021600004A905480594FFF717FC002801D0FEF7E5
:1021700064FE06B010BD0000980000200C4810B5A9
:102180000A4901604FF4E1314160002181600C2275
:10219000C160C0E904128161C161FFF707FD002839
:1021A00003D0BDE81040FEF748BE10BD0038014026
:1021B000E0000020FEE710B5040009D0607E38B1D1
:1021C00000F076FC01466069BDE8104000F092BB6B
:1021D000002010BD00280BD000224261027642761A
:1021E0004FEA020140F82120491CC9B20529F9D360
:1021F000704770B504000D460ED0607E05280DD2E4
:10220000207E294644F82050606900F011FB60618F
:10221000607E401C60760FE0084670BD267E6069D7
:1022200054F8261000F024FD606144F82650294639
:10223000606900F0FDFA6061207E401CC0B220762B
:10224000052801D3002020762046BDE87040FFF726
:10225000B2BFFEE74FF480610148FEF76EB900009F
:102260006001002010B5052918D2A0F16102192AD9
:1022700001D82038C0B20A4B002200BF02EB420452
:1022800013F81440844206D102EB420003EB4000F5
:102290000844407810BD521C2E2AEFD3002010BDF8
:1022A000762D000870B50C4D012028706420FEF7D3
:1022B000C7FD0A4E0024305D00F098F810B10020F0
:1022C000287070BD641C1C2CF5D3FFF7C3FFBDE85C
:1022D000704000F037B80000280000205A2D000898
:1022E0002DE9F04716000446884626D0DFF85090C6
:1022F000B8F1080F21D218E004EBC81087B200250E
:1023000030782946FFF7AEFF79196D1CEDB209F858
:102310000100052DF4D3BAF1800F03D209EB0700B9
:1023200000214171A41DA4B2761C3078002804D08D
:1023300004F1050ABAF1800FDED3BDE8F087000092
:10234000600100202DE9F04FDFF8949087B099F8F4
:102350000000002837D000244FEA040A04F1B0003E
:10236000C0B200F043F860BB002000F03FF840BB73
:10237000102000F03BF820BB1A484FF0800700EB1C
:10238000C4105FEA00084FF000061AD040208DF814
:1023900004000DF1040BB81B85B2102D00D91025D7
:1023A00008EB06012A460BF10100FEF781F80A202E
:1023B0000090681C83B201AA78210B48FEF71EFF2B
:1023C00020B189F800A007B0BDE8F08F701986B27F
:1023D000BE42E0D3641CE4B2082CBFD3F3E7000094
:1023E0002800002060010020440000201CB50021CE
:1023F0008DF804108DF805000A200090022301AA30
:1024000078210248FEF7FAFE1CBD000044000020BF
:1024100070477047FEF7B6BF30B58FB028216846C9
:10242000FEF7ADF814210AA8FEF7A9F80121080467
:10243000CDE900100024029402250491CDE9075053
:102440004FF4E01009906846FFF702F908B172B640
:10245000FEE70F20CDE90A054FF48060CDE90C407E
:1024600002210AA80E94FFF717F8002801D072B6CF
:10247000FEE70FB030BD7047F0B50268194B1A4C3B
:102480001A4D4FF08047984205D0B84203D0A04281
:1024900001D0A84203D122F070064A683243984224
:1024A00005D0B84203D0A04201D0A84203D122F403
:1024B0004074CA6822434C6922F0800222430260C1
:1024C0008A68C2620A688262984201D1096901631E
:1024D000012141610169C90703D0016921F00101AE
:1024E0000161F0BD002C01400004004000080040E4
:1024F00010B5846842EA032224F47F440A4322434D
:10250000826010BD826822F070020A4342F0070127
:102510008160704710B5036A046A24F00104046204
:10252000846924F0F00444EA021423F00A020A4306
:102530008461026210BD10B5036A046A24F01004BD
:102540000462846923F0A00324F4704444EA023254
:1025500043EA01118261016210BD01680C3151E84A
:10256000002F22F4907241E80023002BF5D101687E
:10257000143151E8002F22F0010241E80023002B22
:10258000F5D1016B012909D101680C3151E8002F07
:1025900022F0100241E80023002BF5D1202180F821
:1025A0004210002101637047F8B514460D002DD08C
:1025B000002C2BD016494FF07C5610F1FF4F05D25E
:1025C00000F08AFA314600F033F904E000F084FAB2
:1025D000314600F04DFB00F04FFA0A21002809DADD
:1025E0004042B0FBF1F2B0FBF1F301FB12020092AA
:1025F00008A207E0B0FBF1F2B0FBF1F301FB12021D
:10260000009207A221462846FDF7E6FDF8BD00002E
:10261000000020412D256C752E2530316C75000091
:10262000256C752E2530316C75000000F0B5A3B017
:102630001D46289E17460B46040021D010221BA9D8
:102640001846FFF7B1FF10221FA93846FFF7ACFF6D
:102650000EB1012000E000201FA9CDE90015029075
:102660001BAB08A2602103A8FDF7B6FD002807DD1B
:10267000602805D282B2322303A92046FFF700FB6F
:1026800023B0F0BD7B2274656D70223A25732C2235
:1026900068756D223A25732C2274696D65223A257E
:1026A0006C752C22616C61726D223A25757D0D0A64
:1026B0000000000070B5044600680169E26821F47A
:1026C0004051114301612169A068084361690843D1
:1026D0002168CA6841F20C639A430243CA602068C9
:1026E0004169A26921F44071114341611E4920688A
:1026F000884202D1FEF776FF01E0FEF763FF00EBB0
:10270000C00101EB0012606864218000B2FBF0F3AD
:10271000B3FBF1F36FF018067343B2FBF0F5B2FBB5
:10272000F0F605EB8305322303EB0515B5FBF1F558
:10273000B6FBF1F605F0F00505EB0615B2FBF0F679
:10274000B2FBF0F0B0FBF1F06FF01802504306EB73
:10275000800003EB0010B0FBF1F0216800F00F00E7
:102760002844886070BD0000003801402DE9F8431E
:10277000984617460D460446089E24E0701C22D059
:10278000FEF772FCA0EB0800B0421AD8CEB1206868
:10279000C168490717D5802D15D0402D13D0016889
:1027A000C94309070FD401680025406800902046FE
:1027B000FFF7D3FE0820606484F840500120BDE894
:1027C000F8830320FBE72068006835EA000004D0A6
:1027D0000020B842D2D00020F1E70120F9E7FEE75F
:1027E0000907090E002804DB00F1E02080F800143E
:1027F000704700F00F0000F1E02080F8141D7047D2
:1028000030380A2801D20120704700207047FEF7B7
:10281000C1FDFFF701FEFFF701FCFFF75DFCFFF7CD
:102820007BFCFFF7ABFCFEF717F8FEF751F9FCE76E
:1028300090EA010F48BF81F0004100F12082421A66
:102840003CBF801A89184FEAD0524FF07F4C1CEAE7
:10285000410FA2EBD15318BF9CEA026F00F03B80FE
:102860004FF0004C4CEA00204CEA012121FA03FC15
:1028700010EB0C0C1ED202F1FF325FEA1C2040EB81
:10288000C25038BF70471CF07F0F4FEA400C18BF92
:10289000BCF17F4F38BF7047C3F12003994008BF98
:1028A00020F00100BCF17F4F38BF7047A0F1C0405D
:1028B00000F0D9B94FEA3C00000A40EBC25028BFF3
:1028C0001CF0FF0F4FEA400CE6D018BFBCF17F4F61
:1028D00038BF7047EAE79CEA026F05D010EA5C0F48
:1028E00008BF00F00040704710B500F076F900BF57
:1028F00064FBBE3E4FF47F0C1CEAD0121EBF1CEAE4
:10290000D11392EA0C0F93EA0C0F00F0858090EA45
:10291000010F48BF42F4807240F4000C41F4000003
:102920002CF07F4120F07F4000B58142A2EB0302F2
:102930000FF2081CACEB504EC0F100009EF800E016
:102940004FEA4E0E00FB0EFC38BF49004FEA2C1C2C
:1029500002F5FA020CFB0EF34FEACE1E4FEA112CE1
:102960004FEAC1210EEB635E42EB22420EFB0CFCF0
:102970004FEA1C5300FB03114FEA112C4FEA0131BF
:102980000EFB0CFC4FEADC4C00FB0C11C14228BFD3
:1029900009184CEB03335DF804EB10EB410143EBFA
:1029A000C250B2F57C0F38BF704729D512F0F00F36
:1029B0001CBF00F1C04000F00040704700818283DE
:1029C0008485868788898B8C8D8E8F91929395963E
:1029D00097999A9C9D9FA0A2A3A5A7A8AAACAEB0C8
:1029E000B2B3B5B7B9BCBEC0C2C5C7C9CCCED1D4CD
:1029F000D7D9DCDFE2E6E9ECF0F3F7FAFE000000FD
:102A00004FEA400C0CF1807CBCF17E4F28BF704730
:102A1000B0F1C04000F027B990EA010F0CEAD113E1
:102A200048BF42F48072624538BF634507D213F451
:102A30007F0F16D080EA010000F00040704710B50B
:102A400000F0CBF8097EFC3E00F005B880EA0100FA
:102A500000F00040704780EA010000F0004000F004
:102A600002B912F47F0F04BF0248704780EA0100E8
:102A700000F0F9B80000C07F41000B0ED3F19E02B8
:102A800008D950F400034FEA032323FA02F048BFA9
:102A90004042704710B500F0A0F800BF4992248072
:102AA000002070476FF0004282EA2000704700006B
:102AB000B0FA80F310FA03F2C3F19D030AD0D905EE
:102AC00001EB1220530638BF704700F1010008BF28
:102AD00020F00100704700004FF47F0C1CEAD01278
:102AE0001EBF1CEAD11392EA0C0F93EA0C0F00F000
:102AF000478090EA010F48BF42F480724FF0004CCB
:102B00004CEA00204CEA012102EB0302A0FB011376
:102B1000A2F50002002918BF43F001035B0028BFA3
:102B20004FEA330342EB22425FEA132C4CEBC250D4
:102B30002EBFBCEB436FB2F57C0F70474FEA036CBE
:102B4000BCF1004F08BF20F00100B2F57C0F38BF88
:102B500070470BD582F0FF0212F5803FC8BF704767
:102B600000F1C040D8BF00F00040704700F5000CF5
:102B70005FEA4C0C48BF7047B0F1C04000F073B83A
:102B800090EA010F0CEAD11348BF42F4807262450B
:102B900038BF634504D280EA010000F0004070476E
:102BA00010B500F01AF800BF8900013E00F007B828
:102BB00000F009B85FEA410C5FEA1C6C08D080EABB
:102BC000010000F050B85FEA400C5FEA1C6CF6D1DF
:102BD0004FF00040A0F5800070470EF1020E2EF07D
:102BE000030E5EF8044B244204D44FEA4102B2F1D2
:102BF0007F4F11D84FEA4003B3F17F4F0CD80ED16D
:102C00004FEAD07CB2F17F4F0CEB4C0C0CF1020C74
:102C100008BF4CEBD17C04E04FF0080C01E04FEA18
:102C2000D17C0CEB4C0324FA03F404F00704B4F158
:102C3000040C06D20EEB840CBDE810404CF0010CE5
:102C40006047DFE80CF0070802024FF00040A0F5F3
:102C5000800010BD0846420018BFD2F1807288BFC4
:102C600000F0004010BDFF2141EAD050C005704780
:102C700090EA010F48BF81F000413FF5E0AD421AF4
:102C800004D882F00042A0EB020011444FEAD05277
:102C90004FF07F4C1CEA410FA2EBD15318BF9CEAC6
:102CA000026F4AD04FF0004C4CEA00204CEA012160
:102CB00021FA03FCB0EB0C0C0FD412F0FE0F36D04F
:102CC0005FEA4C001DD5001240EBC25038BF704780
:102CD0001CF03F0F18BF70470BE0A2F101025FEA42
:102CE0001C2040EBC25038BF70471CF07F0F18BF4C
:102CF0007047C3F12003994014BF401E20F001002B
:102D0000704780084FEA122308BF7047B0FA80FC72
:102D1000A2EB0C02CCF1280C60FA0CF093EA122F13
:102D200004BF00EBC25070474FEAC3707047130AEC
:102D30005FEADC1008BF7047F6E79CEA026F04D038
:102D400010EA5C0F08BF0020704710B5FFF745FF81
:102D500040DFF63E81F000407047AE2000B0C80072
:102D60001040817FA1A6A83FA4D300D580D9F1DA75
:102D700012DB408D14AF2000000000002100005F36
:102D800000002563130864632B08083E08082D081B
:102D9000080808082E00606000002F2010080402B8
:102DA0003A00363600003F02015109065F404040BC
:102DB0004040303E5149453E3100427F4000324262
:102DC00061514946332141454B31341814127F106B
:102DD000352745454539363C4A494930370171095F
:102DE000050338364949493639064949291E417E85
:102DF0001111117E427F49494936433E41414122EA
:102E0000447F4141221C457F49494941467F090988
:102E10000901473E4149497A487F0808087F49002F
:102E2000417F41004A2040413F014B7F081422412D
:102E30004C7F404040404D7F020C027F4E7F040893
:102E4000107F4F3E4141413E507F09090906513EE6
:102E50004151215E527F091929465346494949315A
:102E60005401017F0101553F4040403F561F204023
:102E7000201F573F4038403F5863140814635907D8
:102E8000087008075A6151494543010202030405CD
:102E9000060708090A0B0C0D0E0F101000000000A9
:102EA00000000000010203040607080900000000FA
:102EB00001020304040000080000000000000002FA
:102EC0000001000010000000E82E000800000020B3
:102ED00044000000280100082C2F000844000020B6
:102EE0007C0B00004401000800000000000000000E
:102EF00000000000000000000000000000000000D2
:102F000000000000000000000000000000000000C1
:102F100000000000000000000000000001000000B0
:0C2F2000100000000000000000127A0009
:04000005080000ED02
:00000001FF
